:100000000C9455100C9486100C9486100C94861049
:100010000C9486100C9486100C9486100C94861008
:100020000C9486100C9486100C9486100C948610F8
:100030000C9486100C9486100C9486100C948610E8
:100040000C9486100C941A550C9486100C948610FF
:100050000C9486100C9486100C94F0720C945095AD
:100060000C9486100C94718F0C9486100C9486104E
:100070000C9486100C9486100C9486100C948610A8
:100080000C9486100C9486100C9486100C94861098
:100090000C94048E0C942D8E0C9486100C94861067
:1000A0000C9486100C9486100C9486100C94861078
:1000B0000C9486100C9486100C9486100C94861068
:1000C0000C9486100C9486100C9486100C94861058
:1000D0000C9486100C9486100C9486100C94861048
:1000E0000C9486100A2D1C2D232A5B2AC12AFB2A78
:1000F000612B992BFF2B232C602A772A002B172B9F
:100100009E2BB52B5D2C812CA52ABC2A452B5C2B64
:10011000E32BFA2BA72CD52CAF2DB32D4A2D5E2D1A
:10012000B62DC12DFA2D082E152E212E442E8A2EE5
:100130004D2FD92F3A2D2E2D293094314F30793033
:10014000A330CD30F73094319431943194319431DF
:10015000943194319431923131313331943194313D
:100160002131362FCD2E022F182F80418341864119
:1001700089418C418F419241954198419B419E41DB
:10018000A141A441A48FAA8FBB8FC68FCE8FE38FCE
:10019000D28FE38FD68FDA8FE38FE08F3D9140913E
:1001A0002F91339139917791449148914E91529189
:1001B00056915C916091649177916A916E91729180
:1001C00099939E93A393AD93B7933094C193C9939E
:1001D000D193DB93E593EF93FE93089430941294BC
:1001E0001C942694D89C2D9B5C9BAB9BE69CB89B57
:1001F000BF9BEF9BD89CF69BD89C084AD73B3BCE35
:10020000016E84BCBFFDC12F3D6C74319ABD568315
:100210003DDA3D00C77F11BED9E4BB4C3E916BAACD
:10022000AABE000000803F05A84CCDB2D44EB9381C
:1002300036A9020C50B9918688083CA6AAAA2ABE03
:10024000000000803F07634236B79BD8A71A396881
:100250005618AEBAAB558C1D3CB7CC5763BD6DED8F
:10026000FD753EF6177231BF000000803F080000A8
:1002700000BE922449123EABAAAA2ABECDCCCC4CD9
:100280003E00000080BEABAAAAAA3E00000000BF4C
:10029000000000803F0000000000084178D3BB430D
:1002A00087D1133D190E3CC3BD4282AD2B3E68EC95
:1002B0008276BED98FE1A93E4C80EFFFBE01C4FF1C
:1002C0007F3F0000000000004E414E494E49545906
:1002D000494E46CDCCCC3D0AD7233C17B7D1387711
:1002E000CC2B329595E6241FB14F0A000020410027
:1002F00000C84200401C4620BCBE4CCA1B0E5AAE71
:10030000C59D7400407A10F35A00A0724E1809007F
:1003100010A5D4E80000E87648170000E40B54026A
:100320000000CA9A3B000000E1F5050000809698A5
:1003300000000040420F000000A0860100000010F5
:100340002700000000E80300000000640000000037
:10035000000A00000000000100000000002C76D818
:1003600088DC674F0823DFC1DFAE59E1B1B796E5FE
:10037000E3E453C63AE651997696E8E6C28426EB62
:10038000898C9B62ED407C6FFCEFBC9C9F40F2BA75
:10039000A56FA5F490055A2AF75C936B6CF9676D0D
:1003A000C11BFCE0E40D47FEF520E6B500D0ED9062
:1003B0002E0300943577050080841E080000204E2F
:1003C0000A000000C80C333333330F986E128311C8
:1003D00041EF8D2114893BE65516CFFEE6DB18D19F
:1003E000844B381BF77C1D901DA4BBE42420328471
:1003F000725E228100C9F124ECA1E53D27434F4DF7
:100400004D554E49434154494F4E0044525952555F
:100410004E004552524F525300494E464F004543FD
:10042000484F0047322F4733206261642070617269
:10043000616D65746572730A00456E642066696C4F
:1004400065206C6973740A00426567696E2066698D
:100450006C65206C6973740A004D323030330028AB
:100460006E6F2066696C6529005344207072696E56
:1004700074696E67206279746520004E6F74205332
:1004800044207072696E74696E670A0043757272F7
:10049000656E742066696C653A20002569730025D5
:1004A000696D20256973002569682025696D2025FF
:1004B000697300256964202569682025696D2025F8
:1004C00069730025697920256964202569682025DC
:1004D000696D20256973005072696E742074696DAE
:1004E000653A20001E04190412040B04FD036F6614
:1004F000660044454255473A004D313133205300A0
:100500006F6B0020573A002C20002C2000544845E7
:10051000524D414C5F50524F54454354494F4E0049
:100520004155544F5245504F52545F53445F5354BA
:100530004154555300454D455247454E43595F5030
:10054000415253455200434153455F4C494748543B
:100550005F4252494748544E45535300544F474712
:100560004C455F4C494748545300534F46545741FC
:1005700052455F504F574552004255494C445F50D9
:10058000455243454E54004C4556454C494E475FF5
:1005900044415441005A5F50524F42450041555426
:1005A0004F4C4556454C005052494E545F4A4F42BD
:1005B0000050524F4752455353004155544F5245F6
:1005C000504F52545F54454D5000564F4C554D4579
:1005D0005452494300454550524F4D0053455249EE
:1005E000414C5F584F4E5F584F4646004649524D6A
:1005F000574152455F4E414D453A4D61726C696EAF
:1006000020312E312E3920284769746875622920DF
:10061000534F555243455F434F44455F55524C3A03
:1006200068747470733A2F2F6769746875622E63EB
:100630006F6D2F4D61726C696E4669726D77617274
:10064000652F4D61726C696E2050524F544F434F6D
:100650004C5F56455253494F4E3A312E30204D4152
:100660004348494E455F545950453A3344205072EF
:10067000696E7465722045585452554445525F4323
:100680004F554E543A3120555549443A6365646597
:10069000326132662D343161322D343734382D39A0
:1006A0006231322D633535633632663336376666EE
:1006B0000A002F2F20002054002052004163636560
:1006C0006C65726174696F6E3A20500020666972C1
:1006D00073740A005A0059005800486F6D65200075
:1006E000546F6F206661722066726F6D207265664E
:1006F0006572656E636520706F696E740A00205ABA
:1007000000205900580020204D61783A2000205ADE
:1007100000205900580020204D696E3A20004F6E8D
:1007200020004F666600536F667420656E647374B4
:100730006F70733A200020466C6F773A20000001FA
:1007400036372603FFFFFF353C3D380EFFFFFF31F4
:100750002E303E23FFFFFFFF28FF0C0809FFFFFF9D
:100760001A1C18FFFF2A08440AFF4320643A00209D
:10077000693A0020703A00496E76616C69642065C0
:10078000787472756465720A0043290A0061626CAC
:10079000656420286D696E2074656D702000436F5C
:1007A0006C6420657874727564657320617265206D
:1007B000004E6F2063617365206C696768740A007E
:1007C000454550524F4D204F4B0A004163746976A6
:1007D000652045787472756465723A2000496E76BA
:1007E000616C69642065787472756465720A004D85
:1007F0003130362050256920532569004D3130397C
:1008000020532569004D3139302053256900256C6E
:1008100075206820256C75206D004731205A3130D5
:10082000004731205A3000473120583131302059AB
:10083000313130204633303030004731205A3130AA
:1008400000473238004731205A30004731205833B2
:100850003020593139302046333030300047312094
:100860005A313000473238004731205A3000473182
:10087000205831393020593139302046333030302A
:10088000004731205A313000473238004731205A72
:100890003000473120583139302059333020463329
:1008A000303030004731205A31300047323800476D
:1008B00031205A300047312058333020593330200E
:1008C0004633303030004731205A3130004732381B
:1008D000004D32303036004D32303035004D313041
:1008E0003920532569004D32303035004D323030DB
:1008F00034004D31303920532569004D32303034C9
:10090000004D3230303100473238205A3000473203
:100910003820583020593000656E717565756569ED
:100920006E6720220020496E76616C6964206578CC
:100930007472756465722000000000000000000001
:100940000000000000005C4300005C4300007A43AC
:10095000486F6D696E67206661696C6564005072EE
:100960006F7465637465642050696E0A0020573A9D
:1009700000205A3A0020593A0020436F756E7420C7
:10098000583A0020453A00205A3A0020593A005877
:100990003A003A004361703A0023646566696E6507
:1009A0002044454641554C545F4B64200023646508
:1009B00066696E652044454641554C545F4B69203D
:1009C0000023646566696E652044454641554C5474
:1009D0005F4B702000504944204175746F74756EF0
:1009E000652066696E69736865642120507574209E
:1009F000746865206C617374204B702C204B6920E7
:100A0000616E64204B6420636F6E7374616E7473E7
:100A10002066726F6D2062656C6F7720696E746FEF
:100A200020436F6E66696775726174696F6E2E68B8
:100A30000A00504944204175746F74756E652066D4
:100A400061696C6564212074696D656F75740A0055
:100A5000453120544845524D414C2052554E415746
:100A6000415900546865726D616C2052756E6177F2
:100A700061790045312048656174696E672066615F
:100A8000696C65640048656174696E6720666169B8
:100A90006C656400504944204175746F74756E65CF
:100AA000206661696C6564212054656D70657261B2
:100AB0007475726520746F6F20686967680A00201A
:100AC0004B643A2000204B693A2000204B703A20BA
:100AD000000A20436C617373696320504944200A03
:100AE000002054753A2000204B753A2000206D619B
:100AF000783A2000206D696E3A200020643A200088
:100B000020626961733A2000504944204175746F36
:100B100074756E65206661696C656421204261644C
:100B2000206578747275646572206E756D62657289
:100B30000A00504944204175746F74756E652073C6
:100B4000746172740A0020746F6F206C6F6E67207E
:100B5000657874727573696F6E2070726576656EF4
:100B60007465640A0020636F6C6420657874727524
:100B700073696F6E2070726576656E7465640A00C5
:100B8000627573793A2070617573656420666F725F
:100B900020696E7075740A00627573793A2070610D
:100BA0007573656420666F7220757365720A0062E2
:100BB0007573793A2070726F63657373696E670A33
:100BC000004B494C4C45442E20004B494C4C206373
:100BD000617573656420627920746F6F206D756331
:100BE0006820696E6163746976652074696D65203B
:100BF0002D2063757272656E7420636F6D6D616E0A
:100C0000643A20004D3235005072696E746572206E
:100C100068616C7465642E206B696C6C2829206394
:100C2000616C6C6564210A00000000000000000097
:100C300000000000000048420000484200008040E0
:100C4000000000005761726E696E673A20486F6D50
:100C5000696E672042756D702044697669736F72A2
:100C6000203C20310A000202040000A0400000A045
:100C7000400000004000005C4300005C4300007A3C
:100C800043FFFFFF4D333100534420726561642000
:100C90006572726F720A00446F6E65207072696EC1
:100CA00074696E672066696C650A005072696E74BB
:100CB00065722073746F707065642064756520744C
:100CC0006F206572726F72732E2046697820746887
:100CD00065206572726F7220616E64207573652085
:100CE0004D39393920746F20726573746172742EB6
:100CF000202854656D706572617475726520697322
:100D00002072657365742E205365742069742061A8
:100D1000667465722072657374617274696E672996
:100D20000A004E6F20436865636B73756D207769A9
:100D30007468206C696E65206E756D6265722C201A
:100D40004C617374204C696E653A20004E6F2043ED
:100D50006865636B73756D2077697468206C696E64
:100D600065206E756D6265722C204C617374204C29
:100D7000696E653A2000636865636B73756D206DFD
:100D800069736D617463682C204C617374204C69C5
:100D90006E653A20004C696E65204E756D62657215
:100DA000206973206E6F74204C617374204C696EDF
:100DB00065204E756D6265722B312C204C61737409
:100DC000204C696E653A20004D3131300020746F3F
:100DD0006F206C6F6E6720657874727573696F6EC3
:100DE0002070726576656E7465640A0020636F6CAE
:100DF0006420657874727573696F6E2070726576A1
:100E0000656E7465640A002020506C616E6E6572B8
:100E100042756666657242797465733A20002046B1
:100E2000726565204D656D6F72793A2000436F6D74
:100E300070696C65643A204A756E20313120323019
:100E400031390A00207C20417574686F723A20287D
:100E50006E6F6E652C2064656661756C7420636FBF
:100E60006E666967290A00323031382D30382D30EE
:100E70003100204C61737420557064617465643A6C
:100E80002000312E312E390A004D61726C696E00DE
:100E900020536F6674776172652052657365740ABA
:100EA00000205761746368646F67205265736574CE
:100EB0000A002042726F776E206F7574205265733E
:100EC00065740A002045787465726E616C20526505
:100ED0007365740A00506F77657255700A007374F9
:100EE0006172740A004D3230303000473238205879
:100EF00030004731205A313000473931004D32340B
:100F0000004D3233202573006175746F25692E679B
:100F1000006572726F722077726974696E672074EF
:100F20006F2066696C650A00205A3A0020593A0021
:100F300020583A00656E6473746F7073206869742A
:100F40003A2000446F6E6520736176696E67206693
:100F5000696C652E0A004D3239006F70656E20662F
:100F600061696C65642C2046696C653A20004D32DD
:100F7000342053256C64004D3233202573004732F2
:100F80003820523020583020593000473932205A0A
:100F90002573204525730024F4D43050C38E20C21D
:100FA000A24017828B7011127A910D816CD90AA818
:100FB00061E108C7586607615143061E4B5D05C1D4
:100FC00045A7041A411104093D98037139310340C2
:100FD00036DB0265339102D4305402802E1D026349
:100FE0002CEE01752AC501B028A001102781018FC0
:100FF0002564012B244B01E0223401AC211F018D1B
:10100000200D01801FFC00841EED00971DDF00B83D
:101010001CD200E61BC600201BBC00641AB200B242
:1010200019A8000A19A0006A189900D11791004068
:10103000178B00B516840031167E00B31579003A7F
:10104000157300C7146F0058146A00EE1366008809
:1010500013630025135E00C7125B006C1257001566
:10106000125400C111510070114F0021114B00D6D4
:101070001049008D1047004610440002104200C085
:101080000F4000800F3E00420F3C00060F3B00CB9C
:101090000E3800930E37005C0E3500270E3400F337
:1010A0000D3200C10D3100900D3000600D2E003268
:1010B0000D2D00050D2C00D90C2B00AE0C29008540
:1010C0000C29005C0C2700350C27000E0C2600E8CC
:1010D0000B2400C40B2400A00B23007D0B23005A1B
:1010E0000B2100390B2100180B2000F80A1F00D932
:1010F0000A1E00BB0A1E009D0A1D00800A1D006317
:101100000A1C00470A1B002C0A1B00110A1A00F7D0
:10111000091A00DD091900C4091900AB0919009268
:101120000917007B091800630917004C09160036DF
:10113000091600200916000A091500F5081500E037
:10114000081400CC081400B8081400A40814009077
:101150000813007D0812006B08130058081200469F
:1011600008120034081100230811001208110001B0
:10117000081100F0071000E0071000D0071000C0B1
:10118000071000B0070F00A107100091070E0083A1
:10119000070F0074070F0065070E0057070E004980
:1011A000070E003B070D002E070E0020070D001351
:1011B000070D0006070D00F9060C00ED060D00E016
:1011C000060C00D4060C00C8060C00BC060C00B0CF
:1011D000060C00A4060B0099060C008D060B00827D
:1011E000060B0077060B006C060B0061060A005721
:1011F000060B004C060A0042060A0038060A002EBA
:10120000060A0024060A001A060A0010060900074A
:10121000060A00FD050900F4050900EB050900E2D6
:10122000050900D9050900D0050900C7050900BE58
:10123000050900B5050800AD050800A50509009CD5
:10124000050800940508008C050800840508007C4A
:10125000050800740508006C050700650508005DB9
:10126000050700560508004E050700470507004022
:1012700005080038050700310507002A0507002387
:101280000507001C050600160507000F05070008E6
:1012900005060002050700FB040600F5040700EE42
:1012A000040600E8040600E2040700DB040600D59B
:1012B000040600CF040600C9040600C3040600BDEE
:1012C000040600B7040600B1040500AC040600A63D
:1012D000040600A00405009B040600950405009088
:1012E0000406008A04050085040500800406007ACF
:1012F00004050075040500700405006B0405006614
:10130000040500610405005C040500570405005253
:101310000405004D04050048040500430405003E93
:101320000404003A04050035040500300404002CD0
:1013300004050027040400230405001E0404001A09
:1013400004040016040500110404000D040400093F
:101350000405000404040000040400FC030400F875
:10136000030400F4030400F0030400EC030400E8A9
:10137000030400E4030400E0030400DC030400D8D9
:10138000030400D4030400D0030400CC030400C809
:10139000030300C503030024F404D9201BC40C5C20
:1013A0000E9804C4095F0265077101F405F900FB9A
:1013B00004B30048048700C10369005803550003C3
:1013C000034500BE023A008402310053022A00297C
:1013D00002250004022000E4011C00C8011900AF2E
:1013E00001170098011400840113007101100061BD
:1013F00001100051010E0043010D0036010B002BBE
:10140000010B0020010B00150109000C010900036C
:10141000010800FB000800F3000800EB000700E4EF
:10142000000600DE000600D8000600D2000600CC50
:10143000000500C7000500C2000500BD000400B99A
:10144000000400B5000400B1000400AD000400A9D0
:10145000000400A5000300A20003009F0004009BFD
:101460000003009800030095000200930003009021
:101470000003008D0002008B00030088000200863C
:1014800000020084000300810002007F0002007D52
:101490000002007B00020079000200770001007664
:1014A0000002007400020072000100710002006F6F
:1014B0000002006D0001006C0002006A000100697A
:1014C0000002006700010066000100650001006481
:1014D0000002006200010061000100600001005F85
:1014E0000002005D0001005C0001005B0001005A89
:1014F000000100590001005800010057000100568A
:101500000001005500010054000100530000005389
:101510000001005200010051000100500001004F85
:101520000001004E0000004E0001004D0001004C83
:101530000001004B0000004B0001004A000100497F
:10154000000100480000004800010047000100467B
:101550000000004600010045000000450001004475
:10156000000100430000004300010042000000426F
:101570000001004100000041000100400001003F67
:101580000000003F0001003E0000003E0001003D61
:101590000000003D0001003C0000003C0000003C59
:1015A0000001003B0000003B0001003A0000003A4F
:1015B0000001003900000039000100380000003847
:1015C000000000380001003700000037000100363D
:1015D0000000003600000036000100350000003534
:1015E0000000003500010034000000340000003429
:1015F000000100330000003300000033000100321E
:101600000000003200000032000100310000003113
:101610000000003100010030000000300000003008
:101620000001002F0000002F0000002F0000002FFD
:101630000001002E0000002E0000002E0001002DF1
:101640000000002D0000002D0000002D0001002CE6
:101650000000002C0000002C0000002C0001002BDA
:101660000000002B0000002B0000002B0001002ACE
:101670000000002A0000002A0000002A00010029C2
:1016800000000029000000290000002900000029B6
:1016900000010028000000280000002800000028A9
:1016A000000000280001002700000027000000279C
:1016B000000000270000002700010026000000268F
:1016C0000000002600000026000000260001002582
:1016D0000000002500000025000000250000002576
:1016E0000000002500010024000000240000002468
:1016F000000000240000002400010023000000235B
:10170000000000230000002300000023000000234D
:10171000000000230001002200000022000000223F
:101720000000002200000022000000220001002131
:101730000000002100000021000000210000002125
:101740000000002100000021000100200000002016
:101750000000002000000020000000200000002009
:1017600000000020000000200001001F0000001FFA
:101770000000001F0000001F0000001F0000001FED
:101780000000001F0001001E0000001E0000001EDF
:101790000000001E000000043700001E2900005158
:1017A0001B00005810000010090000CC0400007855
:1017B0000200004101000048617264636F64656467
:1017C0002044656661756C742053657474696E6736
:1017D00073204C6F616465640A00E8030000E8034D
:1017E000000064000000B80B0000000096430000F9
:1017F00096430000A0400000C8410000A042000045
:10180000A0420000C843B032B9422028696E2900C6
:1018100020286D6D290020440020490020204D33F0
:1018200030312050005049442073657474696E67EC
:10183000733A0A00205A0020590020204D323036D9
:10184000205800486F6D65206F66667365743A0AAC
:1018500000204500205A0020590020580020540044
:1018600020530020204D32303520510020453C6D62
:1018700061785F655F6A65726B3E0020583C6D6100
:10188000785F785F6A65726B3E20593C6D61785F66
:10189000795F6A65726B3E205A3C6D61785F7A5F52
:1018A0006A65726B3E00416476616E6365643A20DE
:1018B000513C6D696E5F7365676D656E745F7469C9
:1018C0006D655F75733E20533C6D696E5F6665653F
:1018D00064726174653E20543C6D696E5F74726120
:1018E00076656C5F66656564726174653E00205460
:1018F0000020520020204D323034205000416363DC
:10190000656C65726174696F6E2028756E69747399
:101910002F7332293A20503C7072696E745F616394
:1019200063656C3E20523C726574726163745F61E2
:101930006363656C3E20543C74726176656C5F61D4
:101940006363656C3E0A00204500205A0020590060
:1019500020204D3230312058004D6178696D756D11
:1019600020416363656C65726174696F6E202875D0
:101970006E6974732F7332293A0A00204500205A89
:101980000020590020204D3230332058004D61781E
:10199000696D756D20666565647261746573202874
:1019A000756E6974732F73293A0A00204500205A16
:1019B0000020590020204D393220580053746570A2
:1019C000732070657220756E69743A0A0020204D8C
:1019D0003230302044300A0020204D323030204454
:1019E000002044697361626C65640A0046696C6139
:1019F0006D656E742073657474696E67733A002048
:101A00003B00202047320054524947474552454445
:101A1000006F70656E003A200066696C616D656EDE
:101A200074007A5F6D696E00795F6D696E00785F32
:101A30006D696E005265706F7274696E6720656EB5
:101A40006473746F70207374617475730A00454514
:101A500050524F4D206461746173697A65206572DC
:101A6000726F722E0A00290A002062797465733B36
:101A700020637263200053657474696E677320532A
:101A8000746F726564202800290A002062797465E9
:101A9000733B2063726320002073746F726564204F
:101AA00073657474696E67732072657472696576A4
:101AB0006564202800202863616C63756C6174651F
:101AC0006429210A0020213D2000454550524F4DF8
:101AD00020435243206D69736D61746368202D202B
:101AE0002873746F7265642920002053697A653AFF
:101AF0002000496E6465783A2000204D61726C695F
:101B00006E3D563535290A0028454550524F4D3D0A
:101B100000454550524F4D2076657273696F6E20B7
:101B20006D69736D6174636820006265640A002CDE
:101B30002073797374656D2073746F7070656421A0
:101B4000204865617465725F49443A2000426564CB
:101B50002068656174696E67206661696C65640000
:101B600048656174696E67206661696C65640045EB
:101B7000312048656174696E67206661696C6564CF
:101B80000048656174696E67206661696C65640010
:101B90004B494C4C45442E200070012C01900127EC
:101BA00001B0012201C0011D01F001180110021352
:101BB0000130020E016002090190020401C002FF1F
:101BC000000003FA004003F5008003F000D003EBAF
:101BD000002004E6007004E100E004DC004005D7CA
:101BE00000C005D2004006CD00D006C8008007C363
:101BF000003008BE00F008B900C009B400B00AAF58
:101C000000B00BAA00D00CA500000EA000500F9B46
:101C100000C01096005012910000148C00C015876F
:101C200000B0178200B0197D00D01B7800001E7331
:101C30000040206E0090226900F024640040275F7D
:101C40000090295A00E02B5500102E500020304BF8
:101C50000010324600E033410090353C0010373729
:101C60000070383200A0392D00B03A2800A03B2384
:101C700000603C1E00103D1900903D1400103E0F06
:101C800000703E0A00C03E0500003F0000403FFBE0
:101C9000FF803FF6FFC03FF1FF45312054484552D9
:101CA0004D414C2052554E41574159004245442028
:101CB000544845524D414C2052554E4157415900D0
:101CC000546865726D616C2052756E617761790040
:101CD0004531204572723A204D415854454D5000CF
:101CE0004572723A204D415854454D50204245446A
:101CF000004D415854454D502074726967676572B4
:101D00006564004531204572723A204D494E544574
:101D10004D50004572723A204D494E54454D502069
:101D2000424544004D494E54454D502074726967F8
:101D30006765726564004D383420582059205A2058
:101D40004500202F002042403A0020403A007C3CD1
:101D50003E5E2B3D3F2F5B5D3B2C2A225C004361A6
:101D60006E6E6F74206F70656E2073756264697239
:101D700020006563686F3A0046696C652064656C95
:101D8000657465643A0044656C6574696F6E2066BD
:101D900061696C65642C2046696C653A20006F703F
:101DA000656E206661696C65642C2046696C653AD5
:101DB0002000506F7765722D6C6F73732066696CAD
:101DC00065207772697465206661696C65642E0AA6
:101DD000006F70656E206661696C65642C204669D1
:101DE0006C653A200057726974696E6720746F20C1
:101DF00066696C653A200053442063617264206F09
:101E00006B0A006F70656E526F6F74206661696C4B
:101E100065640A00766F6C756D652E696E69742055
:101E20006661696C65640A00534420696E697420B8
:101E30006661696C0A0057726974696E6720746F15
:101E40002066696C653A20006F70656E2066616976
:101E50006C65642C2046696C653A20006F70656E75
:101E6000206661696C65642C2046696C653A2000C7
:101E700046696C652073656C65637465640A00204F
:101E800053697A653A200046696C65206F70656E0B
:101E900065643A20002066696C653A2000646F69C9
:101EA0006E67006672657368004E6F772000454E5E
:101EB0004420535542524F5554494E450A00222062
:101EC000706F73002220706172656E743A22005345
:101ED0005542524F5554494E452043414C4C207475
:101EE00061726765743A22004B494C4C45442E2080
:101EF00000747279696E6720746F2063616C6C2066
:101F00007375622D67636F64652066696C65732005
:101F10007769746820746F6F206D616E79206C65CD
:101F200076656C732E204D4158206C6576656C206B
:101F300069733A004572726F723A00000021002402
:101F40000027002A002D00300033000101000004AA
:101F50000107010A0100002200250028002B002EA5
:101F6000003100340002010000050108010B0100EE
:101F70000020002300260029002C002F0032000042
:101F80000100000301060109010505050507050813
:101F9000080808020202020A0A08080404040401EC
:101FA000010101010101010303030303030303040E
:101FB0000707070C0C0C0C0C0C0C0C02020202069E
:101FC000060606060606060B0B0B0B0B0B0B0B018E
:101FD000021020200808102040102040800201023A
:101FE0000108040201010204081020408080402002
:101FF000100804020180040201804020100804023D
:1020000001080402010102040810204080010204BA
:10201000081020408000000A0B02090C0D0E080772
:1020200003040100000000000000000000000000A8
:1020300000000000000000000000000000000000A0
:10204000001211100000000000000000000000005D
:102050000000000000000000000000556E6B6E6F75
:10206000776E20636F6D6D616E643A202200457259
:10207000726F722077726974696E6720746F204581
:102080004550524F4D210A0025753A2530327500D2
:10209000253032753A2530327500526573656E64AD
:1020A0003A20006F6B00A8A6E79F11241FBECFEF58
:1020B000D1E2DEBFCDBF00E00CBF14E0A0E0B2E093
:1020C000E2EFFDE601E00BBF02C007900D92AA38D7
:1020D000B107D9F72BE1AAE8B4E001C01D92AB33F8
:1020E000B207E1F710E1C4E5D0E100E006C02197B6
:1020F0000109802FFE010E945DB6C335D10780E043
:102100000807A9F70E940CA00C94E8B60C940000F4
:102110002F923F924F925F926F927F928F929F92F7
:10212000AF92BF92CF92DF92EF92FF920F931F93E5
:10213000CF93DF93CDB7DEB7CF55D1090FB6F89463
:10214000DEBF0FBECDBF91E090935B058091A51AD5
:102150008D3409F45FC6843511F40C94212587343D
:1021600011F00C9465252090A31A3090A41A24E154
:102170002216310409F499C594F444E0241631047C
:1021800044F452E0251631040CF03EC037FE35C051
:102190003DC684E02816310409F452C537C6AAE5C5
:1021A0002A16310409F4B2C55CF4E5E12E163104B7
:1021B00009F481C5FCE12F16310409F482C526C655
:1021C0002BE52216310409F4A5C53CE5231631049C
:1021D00009F01CC6E5E4F2E0FDA7ECA749E6C42E31
:1021E00045E0D42E5EE2852E5AE1952E6BE8A62EB0
:1021F00064E0B62E612C10E0D0C5809138028111C8
:102200000C946C250C94672580913802882311F476
:102210000C9467250E94DE3782E50E949C8D8823FE
:1022200009F438C10E94488D4B015C0120E030E088
:10223000A9010E948EAB882309F458C180912E1AFF
:1022400090912F1AA091301AB091311A8CA79DA7A6
:10225000AEA7BFA72091321A3091331A4091341A99
:102260005091351A28AB39AB4AAB5BAB80911E1A43
:1022700090911F1AA091201AB091211A8CAF9DAF96
:10228000AEAFBFAF2091221A3091231A4091241A89
:102290005091251A28AF39AF4AAF5BAF9C01AD0111
:1022A0006CA57DA58EA59FA50E948EAB81110DC04A
:1022B00028AD39AD4AAD5BAD68A979A98AA99BA9BA
:1022C0000E948EAB882309F411C111E032E023167D
:1022D000310409F010E020E030E0A901C501B401AB
:1022E0000E948EAB881F8827881F181759F080E03E
:1022F00090E0A0E8BFEB28968CAF9DAFAEAFBFAF2C
:1023000028970AC020E030E040E85FE328962CAF31
:102310003DAF4EAF5FAF28972CA53DA54EA55FA55D
:102320006CAD7DAD8EAD9FAD0E9422B224966CAF98
:102330007DAF8EAF9FAF249728A939A94AA95BA981
:1023400068AD79AD8AAD9BAD0E9422B26B017C0174
:1023500024962CAD3DAD4EAD5FAD2497CA01B901B9
:102360000E94F3AB2B013C01A7019601C701B60106
:102370000E94F3AB9B01AC01C301B2010E9423B2E6
:102380000E94DCB46CAB7DAB8EAB9FAB20E030E049
:1023900040E05FE30E94F3AB2B013C01A5019401F7
:1023A000C501B4010E94F3AB4B015C01A301920192
:1023B000C301B2010E94F3AB9B01AC01C501B401A2
:1023C0000E9422B20E94DCB428962CAD3DAD4EADE9
:1023D0005FAD28970E94F3AB4B015C01C701B601CA
:1023E00090582CA93DA94EA95FA90E94FFB2A50152
:1023F00094010E94F3AB6B017C012CAD3DAD4EAD61
:102400005FAD6CA57DA58EA59FA50E9423B220E09F
:1024100030E040E05FE30E94F3AB9B01AC01C701F9
:10242000B6010E9423B22CA53DA54EA55FA50E9432
:1024300022B26B017C0128AD39AD4AAD5BAD68A914
:1024400079A98AA99BA90E9423B220E030E040E04C
:102450005FE30E94F3AB2B013C012CA93DA94EA9DF
:102460005FA924966CAD7DAD8EAD9FAD24970E9483
:10247000FFB2A50194010E94F3AB9B01AC01C30123
:10248000B2010E9423B228A939A94AA95BA90E94D6
:1024900022B214C089E40E949C8D882329F00E94F6
:1024A000488D6B017C0103C0C12CD12C76018AE4DC
:1024B0000E949C8D8823E9F00E94488D6CAF7DAF0F
:1024C0008EAF9FAF20E030E0A901C701B6010E94A6
:1024D0008EAB81111BC020E030E0A9016CAD7DAD59
:1024E0008EAD9FAD0E948EAB811110C0E4E3FFE181
:1024F00093C320E030E0A901C701B6010E948EAB72
:102500008823A1F31CAE1DAE1EAE1FAED701C601BF
:10251000B0588CA79DA7AEA7BFA72CAD3DAD4EADC3
:102520005FAD505828AB39AB4AAB5BAB9C01AD01FA
:10253000BC01CD010E94F3AB4B015C0128A939A974
:102540004AA95BA9CA01B9010E94F3AB9B01AC0186
:10255000C501B4010E9423B20E94DCB464966CAF42
:102560007DAF8EAF9FAF649780912E1A90912F1AF6
:10257000A091301AB091311A88AF99AFAAAFBBAF12
:10258000A7019601BC01CD010E9423B228966CAF31
:102590007DAF8EAF9FAF28972091321A3091331ABA
:1025A0004091341A5091351A24962CAF3DAF4EAF5E
:1025B0005FAF24972CAD3DAD4EAD5FAD24966CADB5
:1025C0007DAD8EAD9FAD24970E9423B268966CAF0F
:1025D0007DAF8EAF9FAF689780911E1A90911F1AA2
:1025E000A091201AB091211A2C968CAF9DAFAEAF5E
:1025F000BFAF2C9728962CAD3DAD4EAD5FAD289763
:10260000BC01CD010E9422B26B017C012091221AF3
:102610003091231A4091241A5091251A60962CAFBC
:102620003DAF4EAF5FAF609768962CAD3DAD4EAD00
:102630005FAD689760966CAD7DAD8EAD9FAD6097D8
:102640000E9422B24B015C018091361A9091371A98
:10265000A091381AB091391A6C968CAF9DAFAEAF7D
:10266000BFAF6C979C01AD016091261A7091271A3B
:102670008091281A9091291A0E9422B26CAB7DABEE
:102680008EAB9FABA70196016CA57DA58EA59FA5DE
:102690000E94F3AB2B013C01A501940168A979A923
:1026A0008AA99BA90E94F3AB9B01AC01C301B201B3
:1026B0000E9423B22B013C01A50194016CA57DA5CC
:1026C0008EA59FA50E94F3AB4B015C01A70196016B
:1026D00068A979A98AA99BA90E94F3AB9B01AC01C7
:1026E000C501B4010E9422B2A30192010E9496B2D8
:1026F0006B017C0120E030E0A9010E948EAB87FFD6
:102700000AC02BED3FE049EC50E4C701B6010E943E
:1027100023B26B017C0192E02916310451F42BEDB8
:102720003FE049EC50E4C701B6010E9422B26B01C0
:102730007C0120E030E0A901C701B6010E948EAB08
:10274000811126C02C962CAD3DAD4EAD5FAD2C97C2
:1027500068AD79AD8AAD9BAD0E948EAB811118C07A
:1027600060962CAD3DAD4EAD5FAD609724966CADDF
:102770007DAD8EAD9FAD24970E948EAB811108C0B8
:10278000FBEDCF2EFFE0DF2EF9ECEF2EF0E4FF2E75
:10279000A701960164966CAD7DAD8EAD9FAD64973B
:1027A0000E94F3AB4B015C0120E030E0A9016CA971
:1027B0007DA98EA99FA90E948EAB8823D9F0A5017F
:1027C0009401C501B4010E94F3AB4B015C012CA93B
:1027D0003DA94EA95FA9CA01B9010E94F3AB9B01B3
:1027E000AC01C501B4010E9423B20E94DCB44B01CC
:1027F0005C010DC020E030E0A901C501B4010E94D8
:1028000049B487FF04C0B7FAB094B7F8B0942FE684
:1028100032E143E85AE3C501B4010E948EAB87FF61
:1028200002C00C946725C501B4010E9498B30E94B0
:102830006CB322967FAF6EAF2297DB01AB2B31F4E6
:10284000E1E0F0E02296FFAFEEAF229740903A1A17
:1028500050903B1A60903C1A70903D1A22962EAD13
:102860003FAD2297B90180E090E00E9492AB4B010E
:102870005C019B01AC01C701B6010E94FFB268AFC9
:1028800079AF8AAF9BAFA50194016CA97DA98EA9F0
:102890009FA90E94FFB264966CAF7DAF8EAF9FAFD1
:1028A0006497A301920160912A1A70912B1A80916A
:1028B0002C1A90912D1A0E9422B2A50194010E9417
:1028C000FFB2A0966CAF7DAF8EAF9FAFA09728AD43
:1028D00039AD4AAD5BADCA01B9010E94F3AB20E04E
:1028E00030E040E05FE30E94F3AB9B01AC0160E0AD
:1028F00070E080E89FE30E9422B22C966CAF7DAF1F
:102900008EAF9FAF2C976C968CAD9DADAEADBFAD2D
:102910006C9789879A87AB87BC874D865E866F8662
:10292000788A6091430270914402072E000C880B54
:10293000990B0E9494AB20913D0230913E02409150
:102940003F02509140020E94F3AB2AE037ED43E290
:102950005CE30E94F3AB68A779A78AA79BA70E94B4
:1029600071949B01AC0128533F4F4F4F5F4F6096CE
:102970002CAF3DAF4EAF5FAF60974CA45DA46EA48B
:102980007FA422242394312C39E13CAB22964EAD16
:102990005FAD22974215530509F41AC10E94E377EF
:1029A0000E947194DC01CB0160962CAD3DAD4EAD23
:1029B0005FAD6097821B930BA40BB50BB7FD10C0E6
:1029C0000E9471949B01AC0128533F4F4F4F5F4FC2
:1029D00060962CAF3DAF4EAF5FAF60970E94C8418D
:1029E0003CA931503CAB332309F441C028A939A993
:1029F0004AA95BA92C966CAD7DAD8EAD9FAD2C9791
:102A00000E94F3AB6B017C019201A30168AD79AD2B
:102A10008AAD9BAD0E94F3ABA70196010E9423B241
:102A20007B018C019201A3012C966CAD7DAD8EAD26
:102A30009FAD2C970E94F3AB4B015C0128A939A9EB
:102A40004AA95BA968AD79AD8AAD9BAD0E94F3AB95
:102A50009B01AC01C501B4010E9422B22B013C01D3
:102A6000C701D80188AB99ABAAABBBAB4DC0B101D4
:102A700080E090E00E9492AB28AD39AD4AAD5BADED
:102A80000E94F3AB4B015C010E94FCB26B017C0124
:102A9000C501B4010E94D2B44B015C01A7019601AB
:102AA0006CA57DA58EA59FA50E94F3AB2B013C01D3
:102AB0002CAD3DAD4EAD5FADC501B4010E94F3AB91
:102AC000A30192010E9423B22B013C01A5019401B4
:102AD0006CA57DA58EA59FA50E94F3AB4B015C0163
:102AE0002CAD3DAD4EAD5FADC701B6010E94F3AB5D
:102AF0009B01AC01C501B4010E9422B268AB79AB65
:102B00008AAB9BAB49E14CAB9201A30128966CAD1B
:102B10007DAD8EAD9FAD28970E9423B269837A83E5
:102B20008B839C8328A939A94AA95BA968966CADB7
:102B30007DAD8EAD9FAD68970E9423B26D837E837D
:102B40008F83988764962CAD3DAD4EAD5FAD649795
:102B500069857A858B859C850E9423B269877A87EF
:102B60008B879C87A0962CAD3DAD4EAD5FADA097F9
:102B70006D857E858F8598890E9423B26D877E87BB
:102B80008F87988B80910502882321F0CE010196D2
:102B90000E94153DE0905A0518A219A21AA21BA284
:102BA000CE0180966C018E01085D1F4F9E01235F50
:102BB0003F4FAE01475F5F4FBE016B5F7F4F4F9747
:102BC0000E941E46882321F09FEF291A390ADECE83
:102BD000E0905A051CA21DA21EA21FA2DE0194961F
:102BE0006D018E01085D1F4F2AE23AE146E25AE18B
:102BF00062E27AE18EE19AE10E941E4680E1EEE116
:102C0000FAE1AEE2BAE101900D928A95E1F70C94F7
:102C100067250E94608EF80184918F010F5F1F4F1E
:102C20008111F7CFE3E2F4E084918F010F5F1F4F32
:102C3000882311F40C9467250E94608EF801F4CF6C
:102C400080E50E949C8D882329F00E94B78C6B013F
:102C50007C0103C0C12CD12C760183E50E949C8DA0
:102C6000882361F00E94F78C20E030E04AE754E4CA
:102C70000E94F3AB0E946CB36B017C010E94755300
:102C80000E947194C60ED71EE81EF91E0E94719410
:102C9000DC01CB018C199D09AE09BF09B7FD02C04B
:102CA0000C9467250E94C841F1CF81E090E00E941A
:102CB0008D8C0C94672580E090E00E948D8C0C94A4
:102CC00067258091BB0481110AC08091401A9091C0
:102CD000411A039721F48EE790E00E94928280913E
:102CE000A6048770873011F00C9471258FE40E9440
:102CF0009C8D882319F00E94E88C03C08FE40E9409
:102D0000538D81110C9467250C94712510929B04AE
:102D10000C94672590939B040C946725812F0E9447
:102D20002A8D762EE72EF82E092F133059F0F50153
:102D300020813181428153810E9422B2762EE72E7A
:102D4000F82E092FD4012D913D914D915C91672D65
:102D50007E2D8F2D902F0E9422B21B012C012DEB76
:102D600037E346E855EB0E9449B487FD20C02DEBC0
:102D700037E346E855E3C201B1010E948EAB181655
:102D8000B4F01F5FB4E0CB0ED11CE4E08E0E911CBA
:102D9000F4E0AF0EB11C143071F1ACA5BDA58D915E
:102DA000BDA7ACA70E949C8D882359F3B7CF1330E1
:102DB00079F4872D9E2DAF2DB02F80933A1A9093E2
:102DC0003B1AA0933C1AB0933D1A66246394D9CF62
:102DD000A2019101F60160817181828193810E943B
:102DE00023B2D6016D937D938D939C931397812F7E
:102DF0000E940B3AC6CF662029F06AE37AE183E0AD
:102E00000E9485530E949B360C9467250E94C692AF
:102E10000C9467258091A31A9091A41A8537910587
:102E200011F40C9467250CF0BAC08C34910509F4A8
:102E3000DCC40CF050C08931910509F4D7C21CF5EF
:102E40008431910509F4C0C17CF48131910509F404
:102E500043C22CF4029708F4BAC10C941E25429781
:102E600009F449C60C941E258631910509F47AC2ED
:102E70000CF474C28731910509F47AC2489709F4B9
:102E80008FC20C941E258E31910509F46DC384F414
:102E90008B31910509F4C6C20CF4B6C28C31910590
:102EA00009F458C34D9711F40C9467250C941E2512
:102EB0008032910509F472C30CF4AFC38A329105D4
:102EC00009F45EC48B34910511F00C941E250E9408
:102ED000C1740C9467258A36910509F4B9C5B4F517
:102EE0008435910509F407C6E4F48135910509F4A8
:102EF000DFC54CF48D34910511F00C941E250E9411
:102F0000F8740C9467258235910509F4F1C5833571
:102F1000910511F00C941E2581E080939A040C9485
:102F200067258C35910509F402C634F48535910581
:102F300009F4E4C50C941E258836910509F459C49A
:102F40008936910509F411C50C941E258F3691051B
:102F500009F48BC48CF48C36910511F40C9467251C
:102F60000CF494C58D36910509F441C58E36910552
:102F700009F468C40C941E258137910509F4C8C46E
:102F800014F40C9467258237910509F47AC68337C7
:102F9000910511F00C941E25ECEEF5E0AFC68F32D2
:102FA00021E0920711F40C9420240CF072C08B3CA9
:102FB000910509F4BEC7C4F58C38910509F41BC509
:102FC000ACF48737910509F440C70CF4F2C6883792
:102FD000910509F43DC78937910511F00C941E2520
:102FE00010923A06109239060C9467258E3B910593
:102FF00009F417C534F48B39910509F4D1C40C9444
:103000001E25883C910509F429C7893C910511F0DA
:103010000C941E25A5E4CA2EA2E0DA2EB4EEEB2E07
:10302000B7E0FB2E10E06AC78C3D910511F40C94BB
:103030008722ACF48D3C910511F40C942E200CF4F5
:1030400098C78E3C910511F40C949920833D91050D
:1030500011F00C941E25E2E7FDE10C94B421823EB0
:10306000910511F40C9403233CF48D3D910511F46A
:103070000C9494220C941E258D3241E0940711F497
:103080000C942C238E32914011F40C94CC230C948C
:103090001E258B38A3E09A0711F40C946725D4F50C
:1030A000843FE1E09E0711F40C943C24ECF4803959
:1030B00021E0920711F40C9439244CF483369140AA
:1030C00011F00C941E25E4E3FFE10C9426248A39C8
:1030D00051E0950711F40C9467258C3A914011F456
:1030E0000C94BC200C941E25863FB1E09B0711F484
:1030F0000C94422414F40C943F24873FF1E09F0782
:1031000011F40C944524883F914011F40C945124FF
:103110000C941E25833D37E0930711F40C949E24F4
:1031200064F5873E53E0950711F40C94752494F4EC
:10313000803A934011F00C941E258091A11A909131
:10314000A21A21E020933C1440E060E00E94BC8A77
:103150000C946725803DE7E09E0711F40C948824C9
:10316000813D974011F00C941E250E94A8908EE29C
:1031700090E00E9492820C946725863D27E092079A
:1031800011F40C94A6248CF4843D47E0940711F4C8
:103190000C94A124853D974011F00C941E258CE0E1
:1031A0009EEF0E949D910C946725873DA7E09A07AA
:1031B00011F40C94B324883D974011F00C941E2513
:1031C00000EA1FE00C940425E8E4F4E089C00091D3
:1031D000A11A1091A21A80E50E949C8D882361F0AB
:1031E0000E94B78C6B017C01BB24B394672B682BC6
:1031F000692B31F4B12C04C0B12CC12CD12C760137
:1032000083E50E949C8D882311F40C946B260E9408
:10321000F78C20E030E04AE754E40E94F3AB0E94D0
:103220006CB36B017C01B1100BC0672B682B692B51
:1032300039F40115110521F0F8018081811102C0D6
:10324000B12C02C0BB24B3940E947553BB20C1F0C3
:10325000E2E7FDE184915F012FEFA21AB20A882311
:1032600021F00E94608EF501F5CFD8018D918D017E
:10327000882319F00E94608EF8CF8AE00E94608E49
:1032800083E080935B0581E080938A04C114D104BC
:10329000E104F104B1F00E947194C60ED71EE81E3D
:1032A000F91E0E947194DC01CB018C199D09AE09B5
:1032B000BF09B7FF0DC080918A0481110C9470265C
:1032C00007C080918A04882319F00E94C841F9CF71
:1032D00010928A040C9467250E94A5440C946725DB
:1032E00084918F010F5F1F4F882321F00E94608E11
:1032F000F801F6CF1092D9168DE694E10E941D7D5B
:103300008BE1EDE6F4E1DE01159601900D928A95D0
:10331000E1F780916B1490916C149C838B8389ED01
:1033200092E09A83898340E050E0BE016F5F7F4F57
:1033300080E090E00E944F84CE0101960E943B41C4
:10334000E9E3F4E084918F010F5F1F4F882311F4AC
:103350000C9467250E94608EF801F4CF0E9490883B
:103360000C94672510923D1410923E140C9467251E
:103370000E94A486E091A11AF091A21A808188236C
:1033800029F0803209F410823196F8CF40E061E0F4
:103390008091A11A9091A21A0E94BC8A0C94672570
:1033A00083E50E949C8D882381F00E94C78CAB012D
:1033B000BC014093D5165093D6166093D7167093E0
:1033C000D81685E096E10E94D67A80913E14882333
:1033D00019F081E080933D1484E50E949C8D811159
:1033E0000C9467250E94C1740C94672510923D14BB
:1033F0000E94E37489E594E09093A5048093A4046B
:103400000E942A8C0C94672580913E14882311F425
:103410000C94672583E50E949C8D81110C94742681
:103420000C94672583E40E94538D882309F450C0CF
:10343000ECE8F4E084918F010F5F1F4F882321F0A7
:103440000E94608EF801F6CF80910816811103C0AA
:10345000EFE5F4E012C0BE016F5F7F4F85E096E1BB
:103460000E94E57B8E010F5F1F4FF80181918F0154
:10347000882349F10E94608EF8CF84918F010F5FFD
:103480001F4F882301F10E94608EF801F6CF24EED1
:10349000C22E24E0D22EE12CF12C20E080912C06CB
:1034A00090E00E2C02C0959587950A94E2F780FD76
:1034B0000CC2EFEFEE1AFE0AF2E0CF0ED11C35E09F
:1034C000E316F10459F78AE00E94608E0C94672598
:1034D00080913E14882339F080913D14882319F09F
:1034E000E9E6F4E003C0EBE7F4E028C084918F0143
:1034F0000F5F1F4F882321F00E94608EF801F6CFE6
:103500006091D5167091D6168091D7169091D816E5
:103510004AE00E94678E8FE20E94608E6091D11611
:103520007091D2168091D3169091D4164AE00E94E1
:10353000678E8AE00E94608E0C94672584918F01CB
:103540000F5F1F4F882311F40C9467250E94608E33
:10355000F801F4CF40E060E08091A11A9091A21AA6
:103560000E94BC8A0C94672580913E14882311F434
:103570000C94672585E096E10E944D9985E096E1DF
:103580000E94C07B10923C1410923B148091A11AAF
:103590009091A21A0E9414860C94672580913D1484
:1035A00081110E94755380913E14882311F40C946C
:1035B000672580E50E949C8D882319F00E94E88C85
:1035C00003C080E50E94538D182F482F61E0809141
:1035D000A11A9091A21A0E94BC8A83E50E949C8D38
:1035E000882381F00E94C78CAB01BC014093D516A3
:1035F0005093D6166093D7167093D81685E096E14F
:103600000E94D67A80913E14882319F081E080933D
:103610003D1411110C946725E5CE0E9472747B0154
:103620008C0120E831E541E050E00E94E7B1C9019A
:103630006DE671E00E941AB64B015C01C801B7014A
:1036400020E13EE040E050E00E94E7B1CA01B9014C
:1036500028E130E040E050E00E94E7B1762E672E8E
:10366000C62ED72E3CE3232E312C412C512CC801E1
:10367000B701A20191010E94E7B1F62EE72ECA011F
:10368000B901A20191010E94E7B1CB018E010F5F48
:103690001F4F81149104D1F0EF92FF927F936F93AB
:1036A0006F927F92BF92AF929F928F9283EC94E041
:1036B0009F938F931F930F930E9460AB0FB6F89464
:1036C000DEBF0FBECDBFE2E7FDE145C0A114B104EE
:1036D00089F0EF92FF927F936F936F927F92BF92E8
:1036E000AF9283EB94E09F938F931F930F930E946D
:1036F00060ABE4CFCD2879F0EF92FF927F936F9388
:103700006F927F9287EA94E09F938F931F930F931A
:103710000E9460ABD3CF892B69F0EF92FF927F9329
:103720006F938FE994E09F938F931F930F930E9461
:1037300060ABC4CFEF92FF928BE994E09F938F939D
:103740001F930F930E9460AB0F900F900F900F90FC
:103750000F900F90B8CF84917F01BFEFEB1AFB0A57
:10376000882321F00E94608EF701F5CFB80187ED24
:1037700094E00E94975C8AE00E94608E0C9467251A
:1037800083E50E949C8D882311F40C9467250E9488
:10379000D78CE82E80E50E949C8D882339F00E940A
:1037A000D78C182F87FF03C00C9467251DE089E490
:1037B0000E949C8D882351F00E94E88C81110C940A
:1037C0006128EEE3F7E08BE697E00AC089E40E9407
:1037D000538DF4CF31968E179F0711F40C94612806
:1037E00024911213F7CF0C9436280E94E3740C94A2
:1037F000672588E690E00E944B3A81110C9467257A
:1038000080912C0683FF02C00C94672583E50E94FB
:103810009C8D882399F00E94F78C0E9467B3CB019E
:103820000E94DB540E94F78C20E030E044EB52E42D
:103830000E948EAB181614F00E94F8740E94EF5D7F
:103840000C9467258EE40E949C8D882311F40C94BF
:1038500067250E94C78C6093CA177093CB1780931B
:10386000CC179093CD170C94672583E50E94538D58
:10387000882359F083E50E949C8D882319F00E94CB
:10388000D78C01C080E080932C06E2E7FDE18491B3
:103890008F010F5F1F4F811103C0E2EFF4E004C0FE
:1038A0000E94608EF801F3CF84918F010F5F1F4F4C
:1038B000882321F00E94608EF801F6CF80912C06BB
:1038C0008111E5CDEEEEF4E018C0BB24B394B20E46
:1038D000222319F08CE20E94608EF601859194916A
:1038E000FC0184918F010F5F1F4F882321F00E94FC
:1038F000608EF801F6CF2B2DDCCD84918F010F5F08
:103900001F4F882309F4DFCD0E94608EF801F5CFA8
:1039100083E50E949C8D811103C0E2E7FDE10DC0AB
:103920000E94D78C8D3320F4809306020C94672577
:103930008CE3809306020C94672584918F010F5FBE
:103940001F4F882321F00E94608EF801F6CF40912E
:10395000060250E060E070E089EF94E00E94445C71
:103960008AE00E94608E0C94672589E690E00E94B0
:103970004B3A811111C0E0E0F5E084918F010F5FB7
:103980001F4F882321F00E94608EF801F6CF0E941D
:103990006D728AE00E94608E10925B050C9476280E
:1039A00083E50E949C8D882311F40C9467250E9466
:1039B000D78C182F8D3308F01CE3109368050E94F4
:1039C00071946B017C01212F30E0A8EEB3E00E94DE
:1039D00013B2C60ED71EE81EF91EC0926405D0921F
:1039E0006505E0926605F09267050C9467250E94D4
:1039F000ED3A0C94672580912C0683FF02C00C944D
:103A0000672583E50E949C8D882311F40C9467251B
:103A10000E94F78C0E9467B3CB010E9411910C9415
:103A2000672580912C0683FF02C00C94672583E5EF
:103A30000E949C8D25968FAF259781110C94852629
:103A400082E50E949C8D81110C9485260C9467253B
:103A500080E50E949C8D811106C083E50E949C8DAB
:103A6000882361F006C00E94D78C81110C946725D1
:103A7000F4CF0E94C78C6F3F710510F06FEF70E0BC
:103A80007093151A6093141A0C94672580E50E94B0
:103A90009C8D811106C01092151A1092141A0C9464
:103AA00067250E94C78C672B11F00C946725F3CF14
:103AB0000E940D750E94055F1092151A1092141A3B
:103AC00000E010E062E370E080E090E00E94399452
:103AD0000E94E3770F5F1F4F0331110599F762E3EF
:103AE00070E080E090E00E9439940E94E377EFC795
:103AF00010929A04ECC70E946537E9C783E50E94DB
:103B0000538D882309F4E3C70E94F78C20E030E04E
:103B10004AE754E40E94F3AB0E946CB360936005E3
:103B2000709361058093620590936305D0C715E497
:103B3000C12E12E0D12E04E0E02E08E0F02E10E0BD
:103B4000F60181916F010E94538D882309F48FC083
:103B5000133009F07AC00E94F78C20915311222370
:103B600049F020914B1130914C1140914D115091E1
:103B70004E1108C020914F113091501140915111B8
:103B8000509152110E94FFB24B015C0120E030E0E5
:103B900040EA51E40E948EAB87FF4EC0A50194011C
:103BA000609110087091110880911208909113088B
:103BB0000E94FFB22B013C019B01AC016091FF050B
:103BC0007091000680910106909102060E94F3AB6D
:103BD0006093FF05709300068093010690930206A0
:103BE000A301920160911B0670911C0680911D0635
:103BF00090911E060E94F3AB60931B0670931C0607
:103C000080931D0690931E066091E0077091E10776
:103C10008091E2079091E3070E9492ABA301920189
:103C20000E94F3AB0E946CB36093E0077093E107CE
:103C30008093E2079093E307809210089092110816
:103C4000A0921208B092130812C00E94F78C209123
:103C50004F113091501140915111509152110E94C9
:103C6000FFB2D7016D937D938D939C9313971F5F44
:103C7000B4E0EB0EF11C143009F062CF0E947A5EC2
:103C800026C70E94755383E50E949C8D882309F402
:103C9000B9C80E94C78C6230710509F0B3C80E9490
:103CA000E79D8BE50E94608E6091281B7091291B17
:103CB00080912A1B90912B1B42E00E94EC8E409138
:103CC0002C1B50912D1B60912E1B70912F1B8AE095
:103CD00095E00E94615C4091301B5091311B6091D6
:103CE000321B7091331B87E095E00E94615C8DE58B
:103CF0000E94608E8AE00E94608EE9C684918F01E6
:103D00000F5F1F4F882321F00E94608EF801F6CFCD
:103D100060E08CED95E00E94643661E085ED95E011
:103D20000E94643661E08AEC95E00E94643661E0AE
:103D30008AEB95E00E94643660E081EB95E00E949A
:103D4000643661E087EA95E00E94643660E08DE9C0
:103D500095E00E94643660E085E995E00E94643653
:103D600060E087E895E00E94643660E089E795E0CE
:103D70000E94643660E08AE695E00E94643660E066
:103D80008CE595E00E94643660E086E495E00E9450
:103D9000643661E085E395E00E94643660E080E28D
:103DA00095E00E94643661E08DE095E00E94643603
:103DB0008EC60091A11A1091A21A83E0D12C40E086
:103DC0008150E1F0F8019081292F2B7F2134C1F738
:103DD00021812133A9F7913421F0953421F441E078
:103DE00002C0DD24D39498012E5F3F4F89012F5FDD
:103DF0003F4FD8019C919032C9F3E2CF442369F040
:103E0000E2E7FDE184917F01BFEFEB1AFB0A882313
:103E100021F00E94608EF701F5CFDD2069F0E2EB22
:103E2000F6E084917F012FEFE21AF20A882321F055
:103E30000E94608EF701F5CFD8018D918D01882306
:103E400009F441CB0E94608EF7CF0E94D7613FC634
:103E500081E080933A068093390639C688EC90E079
:103E60000E944B3A811133C684E40E94538D88230B
:103E700009F441C00E94488D6B017C0111E020E0F3
:103E800030E0A9010E948EAB811101C010E01093B7
:103E9000531120E030E0A901C701B6010E948EABAA
:103EA000882349F10E94488DE0919111B4E0EB9F85
:103EB000F0011124E85AFE4E60837183828393835C
:103EC00020E030E0A9016091581170915911809162
:103ED0005A1190915B110E948EAB81110CC080E051
:103EE00090E0A0EEBFE38093581190935911A093F6
:103EF0005A11B0935B110E94435FE9C5F6018191AD
:103F00006F010E94538D882359F0812F0E942A8DC2
:103F10000E946CB3D7016D937D938D939C931397FF
:103F20001F5FB4E0EB0EF11C143041F70E941F5EDE
:103F3000CEC5E5E4CE2EE2E0DE2EFFE0EF2EF6E089
:103F4000FF2E10E0F60181916F010E94538D8823AE
:103F500049F0812F0E942A8DD7016D937D938D9317
:103F60009C9313971F5FB4E0EB0EF11C143051F7D4
:103F7000AEC583E50E949C8D8823A1F00E94488DE8
:103F800060930706709308068093090690930A06CB
:103F900060930306709304068093050690930606CB
:103FA00010E001C011E080E50E949C8D882359F04B
:103FB0000E94488D60930706709308068093090657
:103FC00090930A0610E082E50E949C8D882359F0A8
:103FD0000E94488D60930B0670930C0680930D062B
:103FE00090930E0610E084E50E949C8D882359F082
:103FF0000E94488D60930306709304068093050623
:104000009093060664C5112309F461C54091070623
:10401000509108066091090670910A068CEB96E0B3
:104020000E94615C40910B0650910C0660910D0658
:1040300070910E0689EB96E00E94615C4091030648
:1040400050910406609105067091060686EB96E095
:104050000E94615C8AE00E94608E39C581E50E9401
:10406000538D882351F00E94B78C60931F06709384
:104070002006809321069093220683E50E94538DAB
:10408000882351F00E94488D60932706709328067C
:104090008093290690932A0684E50E94538D8823F5
:1040A00051F00E94488D60932306709324068093FC
:1040B00025069093260688E50E94538D882351F0AB
:1040C0000E94488D6093F3057093F4058093F50585
:1040D0009093F60589E50E94538D882351F00E9444
:1040E000488D6093F7057093F8058093F9059093D8
:1040F000FA058AE50E94538D882351F00E94488D6D
:104100006093FB057093FC058093FD059093FE057D
:1041100085E40E94538D882309F4D9C40E94488DF8
:104120006093FF057093000680930106909302064A
:10413000CEC465E4C62E62E0D62E7CE3E72E76E0A0
:10414000F72E10E0F60181916F010E94538D8823B4
:1041500059F00E94488DD7016D937D938D939C9368
:104160001397812F0E940B3A1F5FB4E0EB0EF11CF6
:10417000133041F70C94021780917505E82FE27017
:10418000EE2EF82FF470FF2E282F2170D22E80FFF4
:1041900004C0EE2311F0F11152C0E2E7FDE1849179
:1041A0008F010F5F1F4F811103C0EAEDF6E004C0DD
:1041B0000E94608EF801F3CF84918F010F5F1F4F33
:1041C000882321F00E94608EF801F6CFD1100CC038
:1041D000E8EDF6E084918F010F5F1F4F882321F0F7
:1041E0000E94608EF801F6CFE1100CC0E6EDF6E01B
:1041F00084918F010F5F1F4F882321F00E94608EF2
:10420000F801F6CFF11003C0E4EDF6E003C0ECECEA
:10421000F6E00AC084918F010F5F1F4F8823B9F326
:104220000E94608EF801F6CF84918F010F5F1F4FBF
:10423000882309F44CC40E94608EF801F5CF08E28F
:104240001CE04EE25AE15DA74CA7CE0101965C014D
:1042500051E8852E5CE0952E1C01F8016591759161
:1042600085919491ACA5BDA5CD90DD90ED90FD908C
:10427000BDA7ACA7A70196010E9422B22B013C0169
:10428000F101608371838283938320E030E040EA10
:1042900051EC0E9449B487FD0AC020E030E040EABA
:1042A00051E4C301B2010E948EAB18162CF4F40144
:1042B000849118160CF4CFC6D101CD90DD90ED900D
:1042C000FD901D0120E030E040EA51ECC701B6014D
:1042D0000E9449B487FD0AC020E030E040EA51E482
:1042E000C701B6010E948EAB1816D4F4E4E3FFE1D7
:1042F00084918F010F5F1F4F811103C0E0EEF6E044
:1043000004C00E94608EF801F3CF84918F010F5F8B
:104310001F4F882309F4DBC30E94608EF801F5CF9C
:104320000C5F1F4FBFEF8B1A9B0AECE004331E0794
:1043300009F093CF4CE3E42E46E0F42E10E0F501B3
:1043400081919191A191B1915F01F7018193919335
:10435000A193B1937F01812F0E940B3A1F5F13300D
:1043600071F70E949B36B3C384918F010F5F1F4F7B
:10437000882321F00E94608EF801F6CF83E50E9429
:10438000538D882321F00E94E88C80930502E6E299
:10439000F7E084918F010F5F1F4F882321F00E9467
:1043A000608EF801F6CF80910502882319F0EEE1C6
:1043B000F7E002C0E2E2F7E084918F010F5F1F4F48
:1043C000811103C0E6E1F7E004C00E94608EF801AD
:1043D000F3CF84918F010F5F1F4F882321F00E943C
:1043E000608EF801F6CF40908B0450908C04609062
:1043F0008D0470908E04209177053091780540915E
:10440000790550917A05C301B2010E9423B2AB0134
:10441000BC0184E197E00E94615C80908F049090E1
:104420009004A0909104B090920420917B0530916B
:104430007C0540917D0550917E05C501B4010E9427
:1044400023B2AB01BC0181E197E00E94615CC090A6
:104450009304D0909404E0909504F09096042091F9
:104460007F05309180054091810550918205C701FB
:10447000B6010E9423B2AB01BC018EE097E00E941E
:10448000615CE6E0F7E084918F010F5F1F4F8823A6
:1044900021F00E94608EF801F6CF20910B0230913E
:1044A0000C0240910D0250910E02C301B2010E9414
:1044B00023B2AB01BC0184E097E00E94615C2091D3
:1044C0000F02309110024091110250911202C50169
:1044D000B4010E9423B2AB01BC0181E097E00E94CD
:1044E000615C2091130230911402409115025091A9
:1044F0001602C701B6010E9423B2AB01BC018EEFC8
:1045000096E00E94615C8AE00E94608EE0C283E5D2
:104510000E949C8D882309F4DAC20E94C78C709394
:10452000440260934302D3C28DED90E00E944B3A67
:104530008111CDC283E50E949C8D811103C0E2E709
:10454000FDE13BC00091911110E00E94C78C000F6B
:10455000111FF801EF5BFD4F718360838091911112
:1045600090E08C01000F111F000F111F9801295EB0
:104570003D4F7901880F991FFC01EF5BFD4F608172
:104580007181072E000C880B990B0E9494AB2AE0D6
:1045900037ED43E25CE30E94F3ABF801EC5AFE4EC8
:1045A00020813181428153810E94F3ABD7016D9309
:1045B0007D938D939C9313978AC284918F010F5F93
:1045C0001F4F882321F00E94608EF801F6CF85E40A
:1045D0000E94608E80919111805D0E94608EE091BA
:1045E0009111F0E0EE0FFF1FEF5BFD4F60817181D5
:1045F00086E397E00E947E5C85E20E94608E8AE0FE
:104600000E94608E64C280E50E94538D882309F465
:104610005EC20E94C78C6B017C0183E50E949C8D69
:10462000882321F00E94C78C8B0102C00FEF1FEF7F
:10463000C8010196039708F04AC2D7FC48C28C2DE6
:10464000EEE3F7E09491891709F410C53196B7E0CD
:10465000EB36FB07B9F70DC585E40E949C8D8111EF
:1046600010C080E50E94538D882391F00E94F78C42
:1046700060938311709384118093851190938611B8
:1046800007C00E94D78C882361F3E4E3FFE171C087
:1046900089E40E94538D882381F00E94F78C2CEAD4
:1046A00035EC47E25EE30E94F3AB60937F117093B9
:1046B0008011809381119093821184E40E94538D24
:1046C000882381F00E94F78C2CEA35EC47E25EE308
:1046D0000E94FFB2609387117093881180938911B3
:1046E00090938A11E2E7FDE184918F010F5F1F4FE4
:1046F000882321F00E94608EF801F6CF409183114B
:1047000050918411609185117091861183E797E033
:104710000E94615C2CEA35EC47E25EE360917F1118
:104720007091801180918111909182110E94FFB24D
:10473000AB01BC018FE697E00E94615C2CEA35EC8E
:1047400047E25EE360918711709188118091891131
:1047500090918A110E94F3ABAB01BC018BE697E00C
:104760000E94615C8AE00E94608EB1C10E94608EEE
:10477000F80184918F010F5F1F4F8111F7CFE7E799
:10478000F7E084918F010F5F1F4F882309F49FC1C9
:104790000E94608EF801F5CF83E50E94538D182F9B
:1047A000882371F00E94F78C0E9467B370931C02FB
:1047B00060931B0221E0672B09F020E020932B0679
:1047C00080E50E94538D882359F020911B0230917F
:1047D0001C02232B11F00E94E88C80932B0677C1DA
:1047E000111175C1E2E7FDE184918F010F5F1F4F49
:1047F000882321F00E94608EF801F6CF80912B066D
:10480000882319F06DEF72E002C060E073E08EE97A
:1048100097E00E94975C60911B0270911C028DE8EA
:1048200097E00E947E5CE9E8F7E084918F010F5FDA
:104830001F4F882309F44BC10E94608EF801F5CF09
:104840000E942A3244C10E94608EF80184918F0137
:104850000F5F1F4F8111F7CFE1EBF7E084918F01DC
:104860000F5F1F4F882309F432C10E94608EF80148
:10487000F5CF0E9475532BC10E94FC6C28C10E9489
:10488000F16C25C10E947C6622C183E50E94538D94
:10489000882321F00E94E88C91E089270E94096218
:1048A00016C181E080935E110E948C6710925E11A8
:1048B000882309F40CC1E2E7FDE184918F010F5FC9
:1048C0001F4F811103C0E0ECF7E004C00E94608E2E
:1048D000F801F3CF84918F010F5F1F4F882309F4F4
:1048E000F6C00E94608EF801F5CF81E08093380217
:1048F00083E50E949C8D882339F00E94E88C811109
:10490000E6C00E94209EE3C083E50E94538DF7CF4E
:1049100010929B040E9465371092BB048091A20400
:10492000823029F081E090E00E94928202C01092D1
:10493000A2041092B2041092B104C9C00E94A890BF
:10494000C6C084EF91E00E949D91C1C00E94A890D2
:1049500084E690E00E9492828BE090E09093411A6E
:104960008093401AB4C08AE50E94538D882319F1C0
:104970000E94488D6093361A7093371A8093381AC4
:104980009093391A82E00E9459901092361A109230
:10499000371A1092381A1092391A1092261A109259
:1049A000271A1092281A1092291A66E27AE182E0F8
:1049B0000E9485538CC085E40E94538D882309F49E
:1049C00086C00E94488D60933A1A70933B1A809378
:1049D0003C1A90933D1A83E00E94599010923A1A23
:1049E00010923B1A10923C1A10923D1A10922A1AF9
:1049F00010922B1A10922C1A10922D1A6AE27AE158
:104A000083E00E94855363C060E0C8010E94B2B198
:104A1000C8010E94A5B1682F70E080E090E00E947C
:104A2000D28E8DE00E94608E8AE00E94608E0F5FC1
:104A30001F4F043AEFE01E0739F749C00E94C692A3
:104A400046C0F090A31A0E947553FF2029F1E2E7B7
:104A5000FDE184918F010F5F1F4F882321F00E9499
:104A6000608EF801F6CF84E50E94608E6F2D70E0B5
:104A700080E090E04AE00E94678E80E20E94608EB3
:104A8000EDEDF7E084918F010F5F1F4F8823F9F060
:104A90000E94608EF801F6CF10925A05E2E7FDE120
:104AA00084918F010F5F1F4F882321F00E94608E39
:104AB000F801F6CF60915A0570E08BEC97E00E9408
:104AC0007E5C8AE00E94608E02C00E94C6921092B4
:104AD0005B050E94039E0AC30E94DE370E94AE441B
:104AE000F6CF0E94755380913D0290913E02A091B5
:104AF0003F02B091400280939E0490939F04A09344
:104B0000A004B093A1048091430290914402909339
:104B10009D0480939C0484E690E0909344028093EB
:104B2000430211E010933A0688E50E94538DB82E97
:104B300089E50E94538D082F8AE50E94538DA82E87
:104B4000B11004C0011104C01A2505C0011102C032
:104B500010E001C01A2D80E1EEE2FAE1AEE1BAE127
:104B600001900D928A95E1F782E50E949C8D882341
:104B700069F00E94488D6B017C0120E030E0A901C2
:104B80000E948EAB882309F450C006C0C12CD12CE2
:104B900070EAE72E70E4F72E111105C0B11003C0C2
:104BA000002309F453C04090361A5090371A609091
:104BB000381A7090391A20E030E0A901C301B2011F
:104BC0000E9449B487FD1AC0C092261AD092271AB3
:104BD000E092281AF092291AA7019601C301B201A6
:104BE0000E948EAB87FF21C019821A821B821C8211
:104BF000BE016F5F7F4F86E29AE115C018A219A22D
:104C00001AA21BA220E030E040EA50E4C301B20146
:104C10000E9423B269837A838B839C83BE01605E8A
:104C20007F4FCE0101960E948F92111105C0B110E5
:104C300003C0011106C00AC080E00E945B4011233E
:104C4000C1F381E00E945B40111102C0AA2019F05B
:104C500082E00E945B400E94838C809139068093A1
:104C60003A0680919E0490919F04A091A004B09177
:104C7000A10480933D0290933E02A0933F02B09323
:104C8000400280919C0490919D04909344028093F3
:104C900043020E949B368091BB04811118CF809102
:104CA000401A9091411A039709F011CF8091BD04E9
:104CB000811105C083E090E00E94928208CF81308C
:104CC00029F484E290E00E94928201CF85E290E094
:104CD0000E949282FCCEB1100C9420190C941919E8
:104CE0000E94C8410C9451190E94C78CAB01BC01B1
:104CF0004093D5165093D6166093D7167093D81656
:104D000085E096E10E94D67AE2CE0E94F78C0E945E
:104D100067B3CB010E9411918091BB04882369F194
:104D2000FFD160E070E088E190E10E94688240E09D
:104D300050E065E070E08DE290E00E945992F0D181
:104D400062E370E080E090E00E94399440E050E03F
:104D500065E076E08FE290E00E945992E1D162E353
:104D600070E080E090E00E94399440E050E065E01F
:104D700072E08DE290E00E9459920E94F78C20E050
:104D800030E040EA50E40E9449B4181614F40E943E
:104D9000C17481E08093000280915A058093911143
:104DA00018AE19AE1AAE1BAE68961CAE1DAE1EAE86
:104DB0001FAE68971CAE29961FAE29974CE32D961F
:104DC0004FAF2D975CE169965FAF699786E4619676
:104DD0008FAF6197C12CD12C80E8E82E9FEBF92E84
:104DE000412C512C32016091AC047091AD04072E1E
:104DF000000C880B990B0E9494AB162F072F8CA7E1
:104E000098AB9601A7010E948EAB882301F12091F7
:104E1000161A3091171A4091181A5091191A25969E
:104E20009FAD2597612F702F8CA5911108C098A96F
:104E30000E948EAB881F8827881F8CAF0EC098A950
:104E40000E948EAB87FF08C08091000240CE1C2DCF
:104E50000D2DECA6F8AA01C01CAE0E9471946B0146
:104E60007C01DC01CB0168962CAD3DAD4EAD5FAD54
:104E70006897821B930BA40BB50BB7FD3DC0D70100
:104E8000C60188519C4FAF4FBF4F68968CAF9DAF06
:104E9000AEAFBFAF68970E946D72E3E0F5E084911A
:104EA0005F019FEFA91AB90A882321F00E94608E42
:104EB000F501F5CF4114510461047104B9F0D30137
:104EC000C201805F984DAF4FBF4FBC01CD016C193F
:104ED0007D098E099F0928EE33E040E050E00E94F2
:104EE000E7B1CA01B9010E94D28E03C08FE30E94CC
:104EF000608E8AE00E94608E0E94C8410E94719478
:104F000060935C0570935D0580935E0590935F05EB
:104F10002090161A3090171AA091181AACABB091C5
:104F2000191A2196BFAF21979101AD01612F702F02
:104F30008CA598A90E9422B24B015C0120E030E0D0
:104F4000A9010E9449B487FF04C0B7FAB094B7F82A
:104F5000B094411451046104710459F420E030E02C
:104F600040E85FE3C501B4010E948EAB87FF0DC02E
:104F70000AC020E030E040E450E4C501B4010E94E2
:104F800049B4181614F426013701ECADEE2309F4E8
:104F900046C028AD39AD4AAD5BAD2115310541059F
:104FA000510541F0D701C601821B930BA40BB50B31
:104FB000B7FD35C091014CA921965FAD2197299687
:104FC0006FAD29972D967FAD2D9769968FAD699717
:104FD00061969FAD61970E9422B220E030E040ECE4
:104FE0005FE30E948EAB87FD2FCFD701C601805AA9
:104FF0009541AF4FBF4F88AF99AFAAAFBBAF2996CE
:105000002FAE29972D963FAE2D979CA969969FAFFD
:1050100069972196AFAD21976196AFAF6197809167
:105020000002882309F410CF411451046104710473
:1050300029F4C12ED02EECA4F8A8D5CEB0E1CB1A1D
:10504000B7E2DB0AE108F108C418D508E608F7085A
:10505000F7FEFACEEECFF7FAF094F7F8F094D1011C
:10506000CD92DD92ED92FC92139726C90E94C33730
:105070002ECD0E947553BC2C60E08C2D0E9436937F
:105080000F3FBFEF1B0759F48C2D0E94E09231E0D7
:1050900020E0892B09F030E0032F122F05C00130EA
:1050A000110561F401E010E08B2D0E94E092801761
:1050B000910709F40CCD0E94C841F6CF00E010E042
:1050C000F3CF61E0812F0E9436936E2D812F0E94D5
:1050D0000893F12CB701812F0E947293193009F0C7
:1050E000F6CCF092151AE092141AF1CCC15ADF4FA7
:1050F0000FB6F894DEBF0FBECDBFDF91CF911F91E9
:105100000F91FF90EF90DF90CF90BF90AF909F9066
:105110008F907F906F905F904F903F902F90089569
:10512000AF92BF92CF92DF92EF92FF920F931F93B5
:10513000CF93DF93CDB7DEB76E970FB6F894DEBF8F
:105140000FBECDBF85E2EEE9F7E1DF011D928A9542
:10515000E9F780915805909159058597DCF52FB7AF
:10516000F89480914205909143052FBF891B8F775A
:1051700089F140915805509159059FB7F894809155
:10518000430520914205821751F0E82FF0E0EE53DD
:10519000FB4F20818F5F8F778093430502C02FEFF5
:1051A0003FEF9FBFFA01E256F84E208380919E1791
:1051B0008A3579F665E070E080E090E00E943994ED
:1051C00080915805909159050196909359058093C7
:1051D0005805BFCF809158059091590518161906AA
:1051E00014F00C94B831019711F40C94AD319091F6
:1051F000511780919E1798130C94AD3190915217CE
:1052000080919F1798130C94AD318091A1178093D2
:105210005317833811F00C94AD318091A2179091FF
:10522000A317982789279827AC0160E070E0409386
:105230005417509355176093561770935717009152
:10524000A41710E020E030E000935817109359178E
:1052500020935A1730935B174EE9E42E47E1F42E62
:1052600040E050E0BA01B2E0EB0EF11C40175107EC
:1052700062077307D0F4DA01B595A795AA0FBB1F93
:10528000AF5AB84EF701D580ED2DF0E0BE2EAA241E
:10529000F701D680F501ED291C96FC93EE931B9740
:1052A0004E5F5F4F6F4F7F4FDECF8631F0E19F073C
:1052B00009F47BC0F8F4823030E1930709F4B5C0FB
:1052C00038F48115904111F40C947A310C94943196
:1052D0008830E0E19E0709F478C08231904111F0F6
:1052E0000C94943180915C1790915D170E94DB546F
:1052F0000C949431843320E1920709F4F2C758F4F6
:105300008033A0E19A0709F4B2C78233904109F4CF
:10531000B7C70C9494318234E4E19E0709F44CC081
:105320008035954111F00C94943120915C173091A7
:105330005D178091811A9091821A2817390708F019
:10534000F3C780910302909104022817390709F4EA
:10535000EBC755E0880F991F5A95E1F76FEF7FEF84
:105360008D5F9F490E94688280915C1790915D17C4
:105370009093040280930302880F991FFC01E15B64
:10538000F54E6081718182E595E10E94848A809169
:1053900003029091040275E0880F991F7A95E1F756
:1053A00061E070EA8D5F9F4999C780915C17909189
:1053B0005D170E941191B8C780915C1790915D179D
:1053C0009093020280930102AFC780EA9FE00E949F
:1053D000ADB16093BE047093BF048093C0049093FA
:1053E000C1042CE330E040E050E00E94E7B19F931D
:1053F0008F937F936F935F934F933F932F938EE0A1
:1054000098E09F938F938BE297E19F938F930E94F5
:1054100060AB6BE277E180E095E10E945B880FB6BC
:10542000F894DEBF0FBECDBF7FC7E0915C17F0914F
:105430005D17E334F10508F077C78827EE58FF4F72
:105440008F4F0C945DB6C0902E1AD0902F1AE0901A
:10545000301AF090311A20E030E04CE553E4C701F7
:10546000B6010E948EAB87FF5FC720E030E040E2CC
:1054700051E4C701B6010E9423B260932E1A7093C3
:105480002F1A8093301A9093311A20E030E04CE5C7
:1054900053E40E9449B4181664F480E090E0ACE54F
:1054A000B3E480932E1A90932F1AA093301AB093DE
:1054B000311A80E09DC020E030E040E251E41BC0A2
:1054C000C0902E1AD0902F1AE090301AF090311A16
:1054D00020E030E04CE553E4C701B6010E948EABFA
:1054E00087FF22C720E030E040E85FE3C2CF20E042
:1054F00030E040E85FE360912E1A70912F1A80919E
:10550000301A9091311A0E9422B260932E1A709331
:105510002F1A8093301A9093311A20915705211138
:1055200004C020915605222321F220E030E0A90199
:105530000E948EAB87FFBDCF10922E1A10922F1AA9
:105540001092301A1092311AB4CFC0902E1AD09007
:105550002F1AE090301AF090311A20E030E04CE53C
:1055600053E4C701B6010E948EAB87FFDDC62DEC68
:105570003CEC4CEC5DE37DCF2DEC3CEC4CEC5DE386
:10558000BACFC090321AD090331AE090341AF0900B
:10559000351A20E030E04CE553E4C701B6010E9423
:1055A0008EAB87FFC1C620E030E040E251E4C70186
:1055B000B6010E9423B26093321A7093331A80931B
:1055C000341A9093351A20E030E04CE553E40E9401
:1055D00049B4181664F480E090E0ACE5B3E480933D
:1055E000321A9093331AA093341AB093351A81E08B
:1055F0000E94599099C620E030E040E251E41BC07F
:10560000C090321AD090331AE090341AF090351AC4
:1056100020E030E04CE553E4C701B6010E948EABB8
:1056200087FF82C620E030E040E85FE3C0CF20E0A3
:1056300030E040E85FE36091321A7091331A809154
:10564000341A9091351A0E9422B26093321A7093E4
:10565000331A8093341A9093351A209157052111EB
:1056600004C020915605222311F220E030E0A90168
:105670000E948EAB87FFBBCF1092321A1092331A62
:105680001092341A1092351AB2CFC090321AD090BC
:10569000331AE090341AF090351A20E030E04CE5EF
:1056A00053E4C701B6010E948EAB87FF3DC62DECC7
:1056B0003CEC4CEC5DE37BCF2DEC3CEC4CEC5DE347
:1056C000BACFC090361AD090371AE090381AF090BE
:1056D000391A20E030E04AE753E4C701B6010E94DE
:1056E0008EAB87FF21C620E030E040E251E4C701E5
:1056F000B6010E9423B26093361A7093371A8093D2
:10570000381A9093391A20E030E04AE753E40E94B7
:1057100049B4181664F480E090E0AAE7B3E48093FB
:10572000361A9093371AA093381AB093391A82E038
:105730005FCF20E030E040E251E41BC0C090361A59
:10574000D090371AE090381AF090391A20E030E003
:105750004AE753E4C701B6010E948EAB87FFE4C558
:1057600020E030E040E85FE3C2CF20E030E040E8F6
:105770005FE36091361A7091371A8091381A9091D0
:10578000391A0E9422B26093361A7093371A8093A6
:10579000381A9093391A20915705211104C020918D
:1057A0005505222321F220E030E0A9010E948EABB2
:1057B00087FFBDCF1092361A1092371A1092381AFE
:1057C0001092391AB4CFC090361AD090371AE090A0
:1057D000381AF090391A20E030E04AE753E4C70164
:1057E000B6010E948EAB87FF9FC52DEC3CEC4CECC4
:1057F0005DE37DCF2DEC3CEC4CEC5DE3BACFC0908B
:105800001A1AD0901B1AE0901C1AF0901D1A1091D1
:105810005405111103C063EC70E002C061EE70E04A
:10582000072E000C880B990B0E9494AB9B01AC01D6
:10583000C701B6010E9449B487FD3CC020E030E0BA
:1058400040E251E4A7C0C0901A1AD0901B1AE09011
:105850001C1AF0901D1A10915405111103C063EC2D
:1058600070E002C061EE70E0072E000C880B990B0F
:105870000E9494AB9B01AC01C701B6010E9449B4E0
:1058800087FD18C020E030E040E251E460913A1A10
:1058900070913B1A80913C1A90913D1A0E9422B25D
:1058A00060933A1A70933B1A80933C1A90933D1A76
:1058B00083E09ECE1092BD049FC0C0901A1AD09073
:1058C0001B1AE0901C1AF0901D1A1091540511112A
:1058D00003C063EC70E002C061EE70E0072E000CC4
:1058E000880B990B0E9494AB9B01AC01C701B601D8
:1058F0000E9449B487FD29C020E030E040E85FE322
:1059000049C0C0901A1AD0901B1AE0901C1AF0904F
:105910001D1A10915405111103C063EC70E002C010
:1059200061EE70E0072E000C880B990B0E9494AB7F
:105930009B01AC01C701B6010E9449B487FD05C0B7
:1059400020E030E040E85FE3A1CF81E053C0C090A9
:105950001A1AD0901B1AE0901C1AF0901D1A109180
:105960005405111103C063EC70E002C061EE70E0F9
:10597000072E000C880B990B0E9494AB9B01AC0185
:10598000C701B6010E9449B487FD33C02DEC3CEC41
:105990004CEC5DE360913A1A70913B1A80913C1A8D
:1059A00090913D1A0E9423B27BCFC0901A1AD090DA
:1059B0001B1AE0901C1AF0901D1A10915405111139
:1059C00003C063EC70E002C061EE70E0072E000CD3
:1059D000880B990B0E9494AB9B01AC01C701B601E7
:1059E0000E9449B487FD05C02DEC3CEC4CEC5DE316
:1059F0004DCF82E08093BD04111103C063EC70E0D1
:105A000002C061EE70E080E694E10E9468828EE55B
:105A100090E0CCC265E070E080E090E00E943994B4
:105A20008EE099E09093A5048093A4040E942A8CB0
:105A300081E08093560578C465E070E080E090E0F6
:105A40000E94399487E099E09093A5048093A40480
:105A50000E942A8C81E08093550566C48091BD0424
:105A6000811103C083E090E0A1C2082E000C990BC5
:105A700083969CC22091401A3091411A8091BC04B7
:105A8000082E000C990B2930310509F4E6C18C5918
:105A90009F4F8CC2809103029091040297FD44C4F1
:105AA00065E070E00E942EB6611103C08AE190E0CB
:105AB0007DC2CB019927815A9F4F78C28091030202
:105AC0009091040297FD30C4880F991FFC01E15B9F
:105AD000F54E60E070E0808191810E94438A40E051
